{
    "contractName": "PixelsMetaverse",
    "abi": [
        {
            "inputs": [
                {
                    "internalType": "address",
                    "name": "pmt721",
                    "type": "address"
                }
            ],
            "stateMutability": "nonpayable",
            "type": "constructor"
        },
        {
            "anonymous": false,
            "inputs": [
                {
                    "indexed": true,
                    "internalType": "address",
                    "name": "owner",
                    "type": "address"
                },
                {
                    "indexed": true,
                    "internalType": "uint256",
                    "name": "avater",
                    "type": "uint256"
                }
            ],
            "name": "AvaterEvent",
            "type": "event"
        },
        {
            "anonymous": false,
            "inputs": [
                {
                    "indexed": false,
                    "internalType": "uint256",
                    "name": "fromID",
                    "type": "uint256"
                },
                {
                    "indexed": false,
                    "internalType": "uint256",
                    "name": "toID",
                    "type": "uint256"
                },
                {
                    "indexed": false,
                    "internalType": "uint256[]",
                    "name": "id",
                    "type": "uint256[]"
                },
                {
                    "indexed": false,
                    "internalType": "bool",
                    "name": "isAdd",
                    "type": "bool"
                }
            ],
            "name": "ComposeEvent",
            "type": "event"
        },
        {
            "anonymous": false,
            "inputs": [
                {
                    "indexed": true,
                    "internalType": "uint256",
                    "name": "id",
                    "type": "uint256"
                },
                {
                    "indexed": false,
                    "internalType": "string",
                    "name": "name",
                    "type": "string"
                },
                {
                    "indexed": false,
                    "internalType": "string",
                    "name": "time",
                    "type": "string"
                },
                {
                    "indexed": false,
                    "internalType": "string",
                    "name": "position",
                    "type": "string"
                },
                {
                    "indexed": false,
                    "internalType": "string",
                    "name": "zIndex",
                    "type": "string"
                },
                {
                    "indexed": false,
                    "internalType": "string",
                    "name": "decode",
                    "type": "string"
                },
                {
                    "indexed": false,
                    "internalType": "uint256",
                    "name": "sort",
                    "type": "uint256"
                }
            ],
            "name": "ConfigEvent",
            "type": "event"
        },
        {
            "anonymous": false,
            "inputs": [
                {
                    "indexed": true,
                    "internalType": "address",
                    "name": "owner",
                    "type": "address"
                },
                {
                    "indexed": false,
                    "internalType": "bytes32",
                    "name": "dataBytes",
                    "type": "bytes32"
                }
            ],
            "name": "DataOwnerEvent",
            "type": "event"
        },
        {
            "anonymous": false,
            "inputs": [
                {
                    "indexed": true,
                    "internalType": "address",
                    "name": "owner",
                    "type": "address"
                },
                {
                    "indexed": true,
                    "internalType": "uint256",
                    "name": "id",
                    "type": "uint256"
                },
                {
                    "indexed": true,
                    "internalType": "uint256",
                    "name": "dataID",
                    "type": "uint256"
                },
                {
                    "indexed": false,
                    "internalType": "uint256",
                    "name": "configID",
                    "type": "uint256"
                },
                {
                    "indexed": false,
                    "internalType": "string",
                    "name": "rawData",
                    "type": "string"
                },
                {
                    "indexed": false,
                    "internalType": "bool",
                    "name": "remake",
                    "type": "bool"
                }
            ],
            "name": "MaterialEvent",
            "type": "event"
        },
        {
            "inputs": [
                {
                    "internalType": "address",
                    "name": "",
                    "type": "address"
                }
            ],
            "name": "PMT721S",
            "outputs": [
                {
                    "internalType": "string",
                    "name": "",
                    "type": "string"
                }
            ],
            "stateMutability": "view",
            "type": "function"
        },
        {
            "inputs": [
                {
                    "internalType": "uint256",
                    "name": "ids",
                    "type": "uint256"
                },
                {
                    "internalType": "uint256[]",
                    "name": "idList",
                    "type": "uint256[]"
                }
            ],
            "name": "addition",
            "outputs": [],
            "stateMutability": "nonpayable",
            "type": "function"
        },
        {
            "inputs": [
                {
                    "internalType": "address",
                    "name": "",
                    "type": "address"
                }
            ],
            "name": "avater",
            "outputs": [
                {
                    "internalType": "uint256",
                    "name": "",
                    "type": "uint256"
                }
            ],
            "stateMutability": "view",
            "type": "function"
        },
        {
            "inputs": [
                {
                    "internalType": "uint256[]",
                    "name": "idList",
                    "type": "uint256[]"
                },
                {
                    "internalType": "string",
                    "name": "name",
                    "type": "string"
                },
                {
                    "internalType": "string",
                    "name": "time",
                    "type": "string"
                },
                {
                    "internalType": "string",
                    "name": "position",
                    "type": "string"
                },
                {
                    "internalType": "string",
                    "name": "zIndex",
                    "type": "string"
                },
                {
                    "internalType": "string",
                    "name": "decode",
                    "type": "string"
                }
            ],
            "name": "compose",
            "outputs": [],
            "stateMutability": "nonpayable",
            "type": "function"
        },
        {
            "inputs": [
                {
                    "internalType": "string",
                    "name": "name",
                    "type": "string"
                }
            ],
            "name": "createPMT721",
            "outputs": [],
            "stateMutability": "nonpayable",
            "type": "function"
        },
        {
            "inputs": [
                {
                    "internalType": "bytes32",
                    "name": "",
                    "type": "bytes32"
                }
            ],
            "name": "dataOwner",
            "outputs": [
                {
                    "internalType": "address",
                    "name": "",
                    "type": "address"
                }
            ],
            "stateMutability": "view",
            "type": "function"
        },
        {
            "inputs": [
                {
                    "internalType": "address",
                    "name": "from",
                    "type": "address"
                },
                {
                    "internalType": "address",
                    "name": "to",
                    "type": "address"
                },
                {
                    "internalType": "uint256",
                    "name": "id",
                    "type": "uint256"
                }
            ],
            "name": "handleTransfer",
            "outputs": [],
            "stateMutability": "nonpayable",
            "type": "function"
        },
        {
            "inputs": [
                {
                    "internalType": "string",
                    "name": "name",
                    "type": "string"
                },
                {
                    "internalType": "string",
                    "name": "rawData",
                    "type": "string"
                },
                {
                    "internalType": "string",
                    "name": "time",
                    "type": "string"
                },
                {
                    "internalType": "string",
                    "name": "position",
                    "type": "string"
                },
                {
                    "internalType": "string",
                    "name": "zIndex",
                    "type": "string"
                },
                {
                    "internalType": "string",
                    "name": "decode",
                    "type": "string"
                },
                {
                    "internalType": "uint256",
                    "name": "num",
                    "type": "uint256"
                }
            ],
            "name": "make",
            "outputs": [],
            "stateMutability": "nonpayable",
            "type": "function"
        },
        {
            "inputs": [
                {
                    "internalType": "uint256",
                    "name": "",
                    "type": "uint256"
                }
            ],
            "name": "material",
            "outputs": [
                {
                    "internalType": "uint256",
                    "name": "composed",
                    "type": "uint256"
                },
                {
                    "internalType": "bytes32",
                    "name": "dataBytes",
                    "type": "bytes32"
                },
                {
                    "internalType": "bool",
                    "name": "remake",
                    "type": "bool"
                }
            ],
            "stateMutability": "view",
            "type": "function"
        },
        {
            "inputs": [
                {
                    "internalType": "uint256",
                    "name": "id",
                    "type": "uint256"
                },
                {
                    "internalType": "uint256",
                    "name": "num",
                    "type": "uint256"
                }
            ],
            "name": "reMake",
            "outputs": [],
            "stateMutability": "nonpayable",
            "type": "function"
        },
        {
            "inputs": [
                {
                    "internalType": "uint256",
                    "name": "id",
                    "type": "uint256"
                }
            ],
            "name": "setAvater",
            "outputs": [],
            "stateMutability": "nonpayable",
            "type": "function"
        },
        {
            "inputs": [
                {
                    "internalType": "uint256",
                    "name": "id",
                    "type": "uint256"
                },
                {
                    "internalType": "string",
                    "name": "name",
                    "type": "string"
                },
                {
                    "internalType": "string",
                    "name": "time",
                    "type": "string"
                },
                {
                    "internalType": "string",
                    "name": "position",
                    "type": "string"
                },
                {
                    "internalType": "string",
                    "name": "zIndex",
                    "type": "string"
                },
                {
                    "internalType": "string",
                    "name": "decode",
                    "type": "string"
                },
                {
                    "internalType": "uint256",
                    "name": "sort",
                    "type": "uint256"
                }
            ],
            "name": "setConfig",
            "outputs": [],
            "stateMutability": "nonpayable",
            "type": "function"
        },
        {
            "inputs": [
                {
                    "internalType": "bytes32",
                    "name": "dataBytes",
                    "type": "bytes32"
                },
                {
                    "internalType": "address",
                    "name": "to",
                    "type": "address"
                }
            ],
            "name": "setDataOwner",
            "outputs": [],
            "stateMutability": "nonpayable",
            "type": "function"
        },
        {
            "inputs": [
                {
                    "internalType": "uint256",
                    "name": "ids",
                    "type": "uint256"
                },
                {
                    "internalType": "uint256[]",
                    "name": "idList",
                    "type": "uint256[]"
                }
            ],
            "name": "subtract",
            "outputs": [],
            "stateMutability": "nonpayable",
            "type": "function"
        }
    ],
    "bytecode": "608060405234801561001057600080fd5b5060405162003b0438038062003b0483398101604081905261003191610056565b600080546001600160a01b0319166001600160a01b0392909216919091179055610084565b600060208284031215610067578081fd5b81516001600160a01b038116811461007d578182fd5b9392505050565b613a7080620000946000396000f3fe60806040523480156200001157600080fd5b5060043610620000fd5760003560e01c80637473c6851162000097578063a9ebf970116200006e578063a9ebf9701462000202578063c8a000e11462000247578063cfb20619146200029a578063fedb899b14620002b157600080fd5b80637473c68514620001bd5780637ce5699614620001d45780639b8fc84d14620001eb57600080fd5b806360f24ff311620000d857806360f24ff3146200014957806368286079146200016057806372487065146200017757806372a5b18e14620001a657600080fd5b80630436b69d14620001025780631f89d282146200011b57806346197c9a1462000132575b600080fd5b620001196200011336600462001c44565b620002e3565b005b620001196200012c36600462001db2565b62000508565b620001196200014336600462001a52565b6200071a565b620001196200015a36600462001d69565b620008df565b620001196200017136600462001a97565b62000ad4565b6200018e6200018836600462001a0d565b62000d23565b6040516200019d919062001eca565b60405180910390f35b62000119620001b736600462001d69565b62000dc5565b62000119620001ce36600462001bd3565b62001098565b62000119620001e536600462001bba565b62001132565b62000119620001fc36600462001c05565b620012c7565b6200022e6200021336600462001bba565b6003602052600090815260409020546001600160a01b031681565b6040516001600160a01b0390911681526020016200019d565b6200027c6200025836600462001bba565b60046020526000908152604090208054600182015460029092015490919060ff1683565b6040805193845260208401929092521515908201526060016200019d565b62000119620002ab36600462001dec565b6200138e565b620002d4620002c236600462001a0d565b60026020526000908152604090205481565b6040519081526020016200019d565b60008111620003455760405162461bcd60e51b815260206004820152602360248201527f546865207175616e74697479206d75737420626520677265617465722074686160448201526206e20360ec1b60648201526084015b60405180910390fd5b6000866040516020016200035a919062001e78565b60408051601f198184030181529181528151602092830120600081815260039093529120549091506001600160a01b031615620003da5760405162461bcd60e51b815260206004820152601e60248201527f54686973206461746120616c72656164792068617320616e206f776e6572000060448201526064016200033c565b600080546040805163071d73ed60e21b8152905185926001600160a01b031691631c75cfb4916004808301926020929190829003018186803b1580156200042057600080fd5b505afa15801562000435573d6000803e3d6000fd5b505050506040513d601f19601f820116820180604052508101906200045b919062001d50565b62000467919062002058565b9050807fc3a1fd389d9bdcabb7be50d29f8d33c70742a6e0f8952597dbaf23dd6955ba3d8a898989896000604051620004a69695949392919062001edf565b60405180910390a260005b83811015620004df57620004ca338a85600086620015d1565b80620004d681620020df565b915050620004b1565b5050600090815260036020526040902080546001600160a01b0319163317905550505050505050565b60005460405163342de17960e01b815260048101899052339189916001600160a01b039091169063342de1799060240160206040518083038186803b1580156200055157600080fd5b505afa15801562000566573d6000803e3d6000fd5b505050506040513d601f19601f820116820180604052508101906200058c919062001b98565b620005ab5760405162461bcd60e51b81526004016200033c9062001f5e565b6000546040516331a9108f60e11b8152600481018390526001600160a01b0390911690636352211e9060240160206040518083038186803b158015620005f057600080fd5b505afa15801562000605573d6000803e3d6000fd5b505050506040513d601f19601f820116820180604052508101906200062b919062001a33565b6001600160a01b0316826001600160a01b0316146200065e5760405162461bcd60e51b81526004016200033c9062001f88565b600089815260046020526040902054156200068d5760405162461bcd60e51b81526004016200033c9062001fb0565b887fc3a1fd389d9bdcabb7be50d29f8d33c70742a6e0f8952597dbaf23dd6955ba3d898989898989604051620006c99695949392919062001edf565b60405180910390a2604080518a815260606020820181905260009082018190529181018290528a90339060008051602062003a1b8339815191529060800160405180910390a4505050505050505050565b6000818152600460209081526040918290208251606081018452815480825260018301549382019390935260029091015460ff1615159281019290925215620007775760405162461bcd60e51b81526004016200033c9062001fb0565b6000546001600160a01b03163314620007a45760405162461bcd60e51b81526004016200033c9062001f88565b6001600160a01b038416600090815260026020526040902054821415620008045760405162461bcd60e51b81526020600482015260136024820152722a3434b99034b2103132b2b71030bb30ba32b960691b60448201526064016200033c565b6001600160a01b03831662000882578060400151156200085d5760405162461bcd60e51b815260206004820152601360248201527254686973206964206265656e2072656d616b6560681b60448201526064016200033c565b60008281526004602052604081208181556001810191909155600201805460ff191690555b6001600160a01b03841615620008d957604080516000808252606060208301819052820181905291810182905283906001600160a01b0386169060008051602062003a1b8339815191529060800160405180910390a45b50505050565b60005460405163342de17960e01b815260048101849052339184916001600160a01b039091169063342de1799060240160206040518083038186803b1580156200092857600080fd5b505afa1580156200093d573d6000803e3d6000fd5b505050506040513d601f19601f8201168201806040525081019062000963919062001b98565b620009825760405162461bcd60e51b81526004016200033c9062001f5e565b6000546040516331a9108f60e11b8152600481018390526001600160a01b0390911690636352211e9060240160206040518083038186803b158015620009c757600080fd5b505afa158015620009dc573d6000803e3d6000fd5b505050506040513d601f19601f8201168201806040525081019062000a02919062001a33565b6001600160a01b0316826001600160a01b03161462000a355760405162461bcd60e51b81526004016200033c9062001f88565b60005b835181101562000a8c5762000a778585838151811062000a6857634e487b7160e01b600052603260045260246000fd5b60200260200101513362001740565b8062000a8381620020df565b91505062000a38565b507f4a6f020eab341d53c95073f3cc357e8f543eba96aabe79b16241e1323802f21160008585600060405162000ac6949392919062001e96565b60405180910390a150505050565b85516001811162000b345760405162461bcd60e51b815260206004820152602360248201527f546865207175616e74697479206d7573742062652067726561746572207468616044820152626e203160e81b60648201526084016200033c565b60008060009054906101000a90046001600160a01b03166001600160a01b0316631c75cfb46040518163ffffffff1660e01b815260040160206040518083038186803b15801562000b8457600080fd5b505afa15801562000b99573d6000803e3d6000fd5b505050506040513d601f19601f8201168201806040525081019062000bbf919062001d50565b62000bcc90600162002058565b6040516bffffffffffffffffffffffff193360601b16602082015260348101829052909150600090605401604051602081830303815290604052805190602001209050817fc3a1fd389d9bdcabb7be50d29f8d33c70742a6e0f8952597dbaf23dd6955ba3d8989898989600060405162000c4c9695949392919062001edf565b60405180910390a262000c723360405180602001604052806000815250838586620015d1565b60005b8381101562000cb95762000ca4838b838151811062000a6857634e487b7160e01b600052603260045260246000fd5b8062000cb081620020df565b91505062000c75565b507f4a6f020eab341d53c95073f3cc357e8f543eba96aabe79b16241e1323802f2116000838b600160405162000cf3949392919062001e96565b60405180910390a1600090815260036020526040902080546001600160a01b031916331790555050505050505050565b6001602052600090815260409020805462000d3e90620020a2565b80601f016020809104026020016040519081016040528092919081815260200182805462000d6c90620020a2565b801562000dbd5780601f1062000d915761010080835404028352916020019162000dbd565b820191906000526020600020905b81548152906001019060200180831162000d9f57829003601f168201915b505050505081565b60005460405163342de17960e01b815260048101849052339184916001600160a01b039091169063342de1799060240160206040518083038186803b15801562000e0e57600080fd5b505afa15801562000e23573d6000803e3d6000fd5b505050506040513d601f19601f8201168201806040525081019062000e49919062001b98565b62000e685760405162461bcd60e51b81526004016200033c9062001f5e565b6000546040516331a9108f60e11b8152600481018390526001600160a01b0390911690636352211e9060240160206040518083038186803b15801562000ead57600080fd5b505afa15801562000ec2573d6000803e3d6000fd5b505050506040513d601f19601f8201168201806040525081019062000ee8919062001a33565b6001600160a01b0316826001600160a01b03161462000f1b5760405162461bcd60e51b81526004016200033c9062001f88565b6000848152600460209081526040918290208251606081018452815480825260018301549382019390935260029091015460ff161515928101929092521562000f785760405162461bcd60e51b81526004016200033c9062001fb0565b60005b84518110156200104f57600085828151811062000fa857634e487b7160e01b600052603260045260246000fd5b60200260200101519050866004600083815260200190815260200160002060000154146200102b5760405162461bcd60e51b815260206004820152602960248201527f546865206974656d20776173206e6f742073796e74686573697a656420696e746044820152686f207468652069647360b81b60648201526084016200033c565b600090815260046020526040812055806200104681620020df565b91505062000f7b565b507f4a6f020eab341d53c95073f3cc357e8f543eba96aabe79b16241e1323802f21185600086600060405162001089949392919062001e96565b60405180910390a15050505050565b6000828152600360205260409020546001600160a01b03163314620010d15760405162461bcd60e51b81526004016200033c9062001f5e565b60008281526003602090815260409182902080546001600160a01b0319166001600160a01b038516179055905183815233917f8acab2b3545d19cf2de87a0a90bcb7463fb4d525f011d817f44d9aace0357bde910160405180910390a25050565b60005460405163342de17960e01b815260048101839052339183916001600160a01b039091169063342de1799060240160206040518083038186803b1580156200117b57600080fd5b505afa15801562001190573d6000803e3d6000fd5b505050506040513d601f19601f82011682018060405250810190620011b6919062001b98565b620011d55760405162461bcd60e51b81526004016200033c9062001f5e565b6000546040516331a9108f60e11b8152600481018390526001600160a01b0390911690636352211e9060240160206040518083038186803b1580156200121a57600080fd5b505afa1580156200122f573d6000803e3d6000fd5b505050506040513d601f19601f8201168201806040525081019062001255919062001a33565b6001600160a01b0316826001600160a01b031614620012885760405162461bcd60e51b81526004016200033c9062001f88565b33600081815260026020526040808220869055518592917f46f2892ec88a0dffdd990073ad044945c425ee6f66313ba209c6522eb0e89aed91a3505050565b600060405180602001620012db9062001901565b6020820181038252601f19601f82011660405250905060008260405160200162001306919062001e78565b6040516020818303038152906040528051906020012090506000818351602085016000f56040516335313c2160e11b81523360048201529091506001600160a01b03821690636a62784290602401600060405180830381600087803b1580156200136f57600080fd5b505af115801562001384573d6000803e3d6000fd5b5050505050505050565b60005460405163342de17960e01b815260048101849052339184916001600160a01b039091169063342de1799060240160206040518083038186803b158015620013d757600080fd5b505afa158015620013ec573d6000803e3d6000fd5b505050506040513d601f19601f8201168201806040525081019062001412919062001b98565b620014315760405162461bcd60e51b81526004016200033c9062001f5e565b6000546040516331a9108f60e11b8152600481018390526001600160a01b0390911690636352211e9060240160206040518083038186803b1580156200147657600080fd5b505afa1580156200148b573d6000803e3d6000fd5b505050506040513d601f19601f82011682018060405250810190620014b1919062001a33565b6001600160a01b0316826001600160a01b031614620014e45760405162461bcd60e51b81526004016200033c9062001f88565b6000848152600460209081526040808320600181015484526003909252909120546001600160a01b031633146200152f5760405162461bcd60e51b81526004016200033c9062001f88565b604080516000808252606060208301819052820181905260018284015291518791339160008051602062003a1b8339815191529181900360800190a460005b84811015620015ae576200159933604051806020016040528060008152508460010154898a620015d1565b80620015a581620020df565b9150506200156e565b50505060009283525050600460205260409020600201805460ff19166001179055565b6000546040516335313c2160e11b81526001600160a01b03878116600483015290911690636a62784290602401600060405180830381600087803b1580156200161957600080fd5b505af11580156200162e573d6000803e3d6000fd5b5050505060008060009054906101000a90046001600160a01b03166001600160a01b0316631c75cfb46040518163ffffffff1660e01b815260040160206040518083038186803b1580156200168257600080fd5b505afa15801562001697573d6000803e3d6000fd5b505050506040513d601f19601f82011682018060405250810190620016bd919062001d50565b6040805160608101825260008082526020808301898152838501838152868452600490925284832093518455516001840155516002909201805460ff191692151592909217909155905191925084918391339160008051602062003a1b83398151915291620017309188918c9162001ff7565b60405180910390a4505050505050565b60005460405163342de17960e01b815260048101849052829184916001600160a01b039091169063342de1799060240160206040518083038186803b1580156200178957600080fd5b505afa1580156200179e573d6000803e3d6000fd5b505050506040513d601f19601f82011682018060405250810190620017c4919062001b98565b620017e35760405162461bcd60e51b81526004016200033c9062001f5e565b6000546040516331a9108f60e11b8152600481018390526001600160a01b0390911690636352211e9060240160206040518083038186803b1580156200182857600080fd5b505afa1580156200183d573d6000803e3d6000fd5b505050506040513d601f19601f8201168201806040525081019062001863919062001a33565b6001600160a01b0316826001600160a01b031614620018965760405162461bcd60e51b81526004016200033c9062001f88565b60008481526004602052604090205415620018ed5760405162461bcd60e51b81526020600482015260166024820152751d1a1a5cc813585d195c9a585b0818dbdb5c1bdcd95960521b60448201526064016200033c565b505050600090815260046020526040902055565b6118d8806200214383390190565b600082601f83011262001920578081fd5b8135602067ffffffffffffffff8211156200193f576200193f62002113565b8160051b6200195082820162002024565b8381528281019086840183880185018910156200196b578687fd5b8693505b858410156200198f5780358352600193909301929184019184016200196f565b50979650505050505050565b600082601f830112620019ac578081fd5b813567ffffffffffffffff811115620019c957620019c962002113565b620019de601f8201601f191660200162002024565b818152846020838601011115620019f3578283fd5b816020850160208301379081016020019190915292915050565b60006020828403121562001a1f578081fd5b813562001a2c8162002129565b9392505050565b60006020828403121562001a45578081fd5b815162001a2c8162002129565b60008060006060848603121562001a67578182fd5b833562001a748162002129565b9250602084013562001a868162002129565b929592945050506040919091013590565b60008060008060008060c0878903121562001ab0578182fd5b863567ffffffffffffffff8082111562001ac8578384fd5b62001ad68a838b016200190f565b9750602089013591508082111562001aec578384fd5b62001afa8a838b016200199b565b9650604089013591508082111562001b10578384fd5b62001b1e8a838b016200199b565b9550606089013591508082111562001b34578384fd5b62001b428a838b016200199b565b9450608089013591508082111562001b58578384fd5b62001b668a838b016200199b565b935060a089013591508082111562001b7c578283fd5b5062001b8b89828a016200199b565b9150509295509295509295565b60006020828403121562001baa578081fd5b8151801515811462001a2c578182fd5b60006020828403121562001bcc578081fd5b5035919050565b6000806040838503121562001be6578182fd5b82359150602083013562001bfa8162002129565b809150509250929050565b60006020828403121562001c17578081fd5b813567ffffffffffffffff81111562001c2e578182fd5b62001c3c848285016200199b565b949350505050565b600080600080600080600060e0888a03121562001c5f578081fd5b873567ffffffffffffffff8082111562001c77578283fd5b62001c858b838c016200199b565b985060208a013591508082111562001c9b578283fd5b62001ca98b838c016200199b565b975060408a013591508082111562001cbf578283fd5b62001ccd8b838c016200199b565b965060608a013591508082111562001ce3578283fd5b62001cf18b838c016200199b565b955060808a013591508082111562001d07578283fd5b62001d158b838c016200199b565b945060a08a013591508082111562001d2b578283fd5b5062001d3a8a828b016200199b565b92505060c0880135905092959891949750929550565b60006020828403121562001d62578081fd5b5051919050565b6000806040838503121562001d7c578182fd5b82359150602083013567ffffffffffffffff81111562001d9a578182fd5b62001da8858286016200190f565b9150509250929050565b600080600080600080600060e0888a03121562001dcd578081fd5b87359650602088013567ffffffffffffffff8082111562001c9b578283fd5b6000806040838503121562001dff578182fd5b50508035926020909101359150565b6000815180845260208085019450808401835b8381101562001e3f5781518752958201959082019060010162001e21565b509495945050505050565b6000815180845262001e6481602086016020860162002073565b601f01601f19169290920160200192915050565b6000825162001e8c81846020870162002073565b9190910192915050565b84815283602082015260806040820152600062001eb7608083018562001e0e565b9050821515606083015295945050505050565b60208152600062001a2c602083018462001e4a565b60c08152600062001ef460c083018962001e4a565b828103602084015262001f08818962001e4a565b9050828103604084015262001f1e818862001e4a565b9050828103606084015262001f34818762001e4a565b9050828103608084015262001f4a818662001e4a565b9150508260a0830152979650505050505050565b60208082526010908201526f125d195b5cc81b5d5cdd08195e1a5cdd60821b604082015260600190565b6020808252600e908201526d27b7363c903a34329037bbb732b960911b604082015260600190565b60208082526027908201527f546865206974656d206d757374206e6f742068617665206265656e2073796e746040820152661a195cda5e995960ca1b606082015260800190565b83815260606020820152600062002012606083018562001e4a565b90508215156040830152949350505050565b604051601f8201601f1916810167ffffffffffffffff8111828210171562002050576200205062002113565b604052919050565b600082198211156200206e576200206e620020fd565b500190565b60005b838110156200209057818101518382015260200162002076565b83811115620008d95750506000910152565b600181811c90821680620020b757607f821691505b60208210811415620020d957634e487b7160e01b600052602260045260246000fd5b50919050565b6000600019821415620020f657620020f6620020fd565b5060010190565b634e487b7160e01b600052601160045260246000fd5b634e487b7160e01b600052604160045260246000fd5b6001600160a01b03811681146200213f57600080fd5b5056fe60806040523480156200001157600080fd5b50604080518082018252600e81526d506978656c734d6574617665727360901b60208083019182528351808501909452600384526214135560ea1b9084015281519192916200006391600091620000ab565b50805162000079906001906020840190620000ab565b50620000859150503390565b600880546001600160a01b0319166001600160a01b03929092169190911790556200018e565b828054620000b99062000151565b90600052602060002090601f016020900481019282620000dd576000855562000128565b82601f10620000f857805160ff191683800117855562000128565b8280016001018555821562000128579182015b82811115620001285782518255916020019190600101906200010b565b50620001369291506200013a565b5090565b5b808211156200013657600081556001016200013b565b600181811c908216806200016657607f821691505b602082108114156200018857634e487b7160e01b600052602260045260246000fd5b50919050565b61173a806200019e6000396000f3fe608060405234801561001057600080fd5b506004361061012c5760003560e01c806342966c68116100ad578063a22cb46511610071578063a22cb46514610273578063b88d4fde14610286578063c87b56dd14610299578063e985e9c5146102ac578063fca3b5aa146102e857600080fd5b806342966c681461021f5780636352211e146102325780636a6278421461024557806370a082311461025857806395d89b411461026b57600080fd5b806313af4035116100f457806313af4035146101c15780631c75cfb4146101d457806323b872dd146101e6578063342de179146101f957806342842e0e1461020c57600080fd5b806301ffc9a71461013157806306fdde0314610159578063075461721461016e578063081812fc14610199578063095ea7b3146101ac575b600080fd5b61014461013f366004611406565b6102fb565b60405190151581526020015b60405180910390f35b61016161034d565b60405161015091906114ee565b600654610181906001600160a01b031681565b6040516001600160a01b039091168152602001610150565b6101816101a736600461143e565b6103df565b6101bf6101ba3660046113dd565b610479565b005b6101bf6101cf366004611247565b61058f565b6007545b604051908152602001610150565b6101bf6101f4366004611293565b6105de565b61014461020736600461143e565b61060f565b6101bf61021a366004611293565b61062e565b6101bf61022d36600461143e565b610649565b61018161024036600461143e565b610685565b6101bf610253366004611247565b6106fc565b6101d8610266366004611247565b61078b565b610161610812565b6101bf6102813660046113a3565b610821565b6101bf6102943660046112ce565b61082c565b6101616102a736600461143e565b610864565b6101446102ba366004611261565b6001600160a01b03918216600090815260056020908152604080832093909416825291909152205460ff1690565b6101bf6102f6366004611247565b61094c565b60006001600160e01b031982166380ac58cd60e01b148061032c57506001600160e01b03198216635b5e139f60e01b145b8061034757506301ffc9a760e01b6001600160e01b03198316145b92915050565b60606000805461035c90611642565b80601f016020809104026020016040519081016040528092919081815260200182805461038890611642565b80156103d55780601f106103aa576101008083540402835291602001916103d5565b820191906000526020600020905b8154815290600101906020018083116103b857829003601f168201915b5050505050905090565b6000818152600260205260408120546001600160a01b031661045d5760405162461bcd60e51b815260206004820152602c60248201527f4552433732313a20617070726f76656420717565727920666f72206e6f6e657860448201526b34b9ba32b73a103a37b5b2b760a11b60648201526084015b60405180910390fd5b506000908152600460205260409020546001600160a01b031690565b600061048482610685565b9050806001600160a01b0316836001600160a01b031614156104f25760405162461bcd60e51b815260206004820152602160248201527f4552433732313a20617070726f76616c20746f2063757272656e74206f776e656044820152603960f91b6064820152608401610454565b336001600160a01b038216148061050e575061050e81336102ba565b6105805760405162461bcd60e51b815260206004820152603860248201527f4552433732313a20617070726f76652063616c6c6572206973206e6f74206f7760448201527f6e6572206e6f7220617070726f76656420666f7220616c6c00000000000000006064820152608401610454565b61058a838361099b565b505050565b60085433906001600160a01b031681146105bb5760405162461bcd60e51b815260040161045490611553565b50600880546001600160a01b0319166001600160a01b0392909216919091179055565b6105e83382610a09565b6106045760405162461bcd60e51b815260040161045490611582565b61058a838383610b00565b6000818152600260205260408120546001600160a01b03161515610347565b61058a8383836040518060200160405280600081525061082c565b3361065382610685565b6001600160a01b0316146106795760405162461bcd60e51b815260040161045490611553565b61068281610ca2565b50565b6000818152600260205260408120546001600160a01b0316806103475760405162461bcd60e51b815260206004820152602960248201527f4552433732313a206f776e657220717565727920666f72206e6f6e657869737460448201526832b73a103a37b5b2b760b91b6064820152608401610454565b60065433906001600160a01b031681146107515760405162461bcd60e51b81526020600482015260166024820152754f6e6c79204d696e7465722043616e20446f2049742160501b6044820152606401610454565b61076e826007600081546107649061167d565b9182905550610d45565b600654600754610787916001600160a01b03169061099b565b5050565b60006001600160a01b0382166107f65760405162461bcd60e51b815260206004820152602a60248201527f4552433732313a2062616c616e636520717565727920666f7220746865207a65604482015269726f206164647265737360b01b6064820152608401610454565b506001600160a01b031660009081526003602052604090205490565b60606001805461035c90611642565b610787338383610e8f565b6108363383610a09565b6108525760405162461bcd60e51b815260040161045490611582565b61085e84848484610f5e565b50505050565b6000818152600260205260409020546060906001600160a01b03166108e35760405162461bcd60e51b815260206004820152602f60248201527f4552433732314d657461646174613a2055524920717565727920666f72206e6f60448201526e3732bc34b9ba32b73a103a37b5b2b760891b6064820152608401610454565b60006108fa60408051602081019091526000815290565b9050600081511161091a5760405180602001604052806000815250610945565b8061092484610f91565b604051602001610935929190611482565b6040516020818303038152906040525b9392505050565b60085433906001600160a01b031681146109785760405162461bcd60e51b815260040161045490611553565b50600680546001600160a01b0319166001600160a01b0392909216919091179055565b600081815260046020526040902080546001600160a01b0319166001600160a01b03841690811790915581906109d082610685565b6001600160a01b03167f8c5be1e5ebec7d5bd14f71427d1e84f3dd0314c0f7b2291e5b200ac8c7c3b92560405160405180910390a45050565b6000818152600260205260408120546001600160a01b0316610a825760405162461bcd60e51b815260206004820152602c60248201527f4552433732313a206f70657261746f7220717565727920666f72206e6f6e657860448201526b34b9ba32b73a103a37b5b2b760a11b6064820152608401610454565b6000610a8d83610685565b9050806001600160a01b0316846001600160a01b03161480610ac85750836001600160a01b0316610abd846103df565b6001600160a01b0316145b80610af857506001600160a01b0380821660009081526005602090815260408083209388168352929052205460ff165b949350505050565b826001600160a01b0316610b1382610685565b6001600160a01b031614610b775760405162461bcd60e51b815260206004820152602560248201527f4552433732313a207472616e736665722066726f6d20696e636f72726563742060448201526437bbb732b960d91b6064820152608401610454565b6001600160a01b038216610bd95760405162461bcd60e51b8152602060048201526024808201527f4552433732313a207472616e7366657220746f20746865207a65726f206164646044820152637265737360e01b6064820152608401610454565b610be460008261099b565b6001600160a01b0383166000908152600360205260408120805460019290610c0d9084906115ff565b90915550506001600160a01b0382166000908152600360205260408120805460019290610c3b9084906115d3565b909155505060008181526002602052604080822080546001600160a01b0319166001600160a01b0386811691821790925591518493918716917fddf252ad1be2c89b69c2b068fc378daa952ba7f163c4a11628f55a4df523b3ef91a461058a8383836110ab565b6000610cad82610685565b9050610cba60008361099b565b6001600160a01b0381166000908152600360205260408120805460019290610ce39084906115ff565b909155505060008281526002602052604080822080546001600160a01b0319169055518391906001600160a01b038416907fddf252ad1be2c89b69c2b068fc378daa952ba7f163c4a11628f55a4df523b3ef908390a4610787816000846110ab565b6001600160a01b038216610d9b5760405162461bcd60e51b815260206004820181905260248201527f4552433732313a206d696e7420746f20746865207a65726f20616464726573736044820152606401610454565b6000818152600260205260409020546001600160a01b031615610e005760405162461bcd60e51b815260206004820152601c60248201527f4552433732313a20746f6b656e20616c7265616479206d696e746564000000006044820152606401610454565b6001600160a01b0382166000908152600360205260408120805460019290610e299084906115d3565b909155505060008181526002602052604080822080546001600160a01b0319166001600160a01b03861690811790915590518392907fddf252ad1be2c89b69c2b068fc378daa952ba7f163c4a11628f55a4df523b3ef908290a4610787600083836110ab565b816001600160a01b0316836001600160a01b03161415610ef15760405162461bcd60e51b815260206004820152601960248201527f4552433732313a20617070726f766520746f2063616c6c6572000000000000006044820152606401610454565b6001600160a01b03838116600081815260056020908152604080832094871680845294825291829020805460ff191686151590811790915591519182527f17307eab39ab6107e8899845ad3d59bd9653f200f220920489ca2b5937696c31910160405180910390a3505050565b610f69848484610b00565b610f758484848461111e565b61085e5760405162461bcd60e51b815260040161045490611501565b606081610fb55750506040805180820190915260018152600360fc1b602082015290565b8160005b8115610fdf5780610fc98161167d565b9150610fd89050600a836115eb565b9150610fb9565b60008167ffffffffffffffff81111561100857634e487b7160e01b600052604160045260246000fd5b6040519080825280601f01601f191660200182016040528015611032576020820181803683370190505b5090505b8415610af8576110476001836115ff565b9150611054600a86611698565b61105f9060306115d3565b60f81b81838151811061108257634e487b7160e01b600052603260045260246000fd5b60200101906001600160f81b031916908160001a9053506110a4600a866115eb565b9450611036565b60065460405163230cbe4d60e11b81526001600160a01b038581166004830152848116602483015260448201849052909116906346197c9a90606401600060405180830381600087803b15801561110157600080fd5b505af1158015611115573d6000803e3d6000fd5b50505050505050565b60006001600160a01b0384163b1561122057604051630a85bd0160e11b81526001600160a01b0385169063150b7a02906111629033908990889088906004016114b1565b602060405180830381600087803b15801561117c57600080fd5b505af19250505080156111ac575060408051601f3d908101601f191682019092526111a991810190611422565b60015b611206573d8080156111da576040519150601f19603f3d011682016040523d82523d6000602084013e6111df565b606091505b5080516111fe5760405162461bcd60e51b815260040161045490611501565b805181602001fd5b6001600160e01b031916630a85bd0160e11b149050610af8565b506001949350505050565b80356001600160a01b038116811461124257600080fd5b919050565b600060208284031215611258578081fd5b6109458261122b565b60008060408385031215611273578081fd5b61127c8361122b565b915061128a6020840161122b565b90509250929050565b6000806000606084860312156112a7578081fd5b6112b08461122b565b92506112be6020850161122b565b9150604084013590509250925092565b600080600080608085870312156112e3578081fd5b6112ec8561122b565b93506112fa6020860161122b565b925060408501359150606085013567ffffffffffffffff8082111561131d578283fd5b818701915087601f830112611330578283fd5b813581811115611342576113426116d8565b604051601f8201601f19908116603f0116810190838211818310171561136a5761136a6116d8565b816040528281528a6020848701011115611382578586fd5b82602086016020830137918201602001949094529598949750929550505050565b600080604083850312156113b5578182fd5b6113be8361122b565b9150602083013580151581146113d2578182fd5b809150509250929050565b600080604083850312156113ef578182fd5b6113f88361122b565b946020939093013593505050565b600060208284031215611417578081fd5b8135610945816116ee565b600060208284031215611433578081fd5b8151610945816116ee565b60006020828403121561144f578081fd5b5035919050565b6000815180845261146e816020860160208601611616565b601f01601f19169290920160200192915050565b60008351611494818460208801611616565b8351908301906114a8818360208801611616565b01949350505050565b6001600160a01b03858116825284166020820152604081018390526080606082018190526000906114e490830184611456565b9695505050505050565b6020815260006109456020830184611456565b60208082526032908201527f4552433732313a207472616e7366657220746f206e6f6e20455243373231526560408201527131b2b4bb32b91034b6b83632b6b2b73a32b960711b606082015260800190565b6020808252601590820152744f6e6c79204f776e65722043616e20446f2049742160581b604082015260600190565b60208082526031908201527f4552433732313a207472616e736665722063616c6c6572206973206e6f74206f6040820152701ddb995c881b9bdc88185c1c1c9bdd9959607a1b606082015260800190565b600082198211156115e6576115e66116ac565b500190565b6000826115fa576115fa6116c2565b500490565b600082821015611611576116116116ac565b500390565b60005b83811015611631578181015183820152602001611619565b8381111561085e5750506000910152565b600181811c9082168061165657607f821691505b6020821081141561167757634e487b7160e01b600052602260045260246000fd5b50919050565b6000600019821415611691576116916116ac565b5060010190565b6000826116a7576116a76116c2565b500690565b634e487b7160e01b600052601160045260246000fd5b634e487b7160e01b600052601260045260246000fd5b634e487b7160e01b600052604160045260246000fd5b6001600160e01b03198116811461068257600080fdfea264697066735822122060ab7f17e08b266e642ad06d0cb95c7603a0f09f2366a96da7c559873b4deef364736f6c63430008040033d877b6edc4cefd07e5412f730f04a5bba1abed67219686d4ba174e3ca24ab511a264697066735822122079fa050871aeac0272b46077f204efee9d0b2deb6d223bcf71f20ebd6163e6b564736f6c63430008040033",
    "sourcePath": "/Users/hsiang/Desktop/mine/project/pixels-metaverse/packages/hardhat/contracts/PixelsMetaverse.sol",
    "compiler": {
        "name": "solc",
        "version": "0.8.4+commit.c7e474f2"
    },
    "functionHashes": {
        "PMT721S(address)": "72487065",
        "addition(uint256,uint256[])": "60f24ff3",
        "avater(address)": "fedb899b",
        "compose(uint256[],string,string,string,string,string)": "68286079",
        "createPMT721(string)": "9b8fc84d",
        "dataOwner(bytes32)": "a9ebf970",
        "handleTransfer(address,address,uint256)": "46197c9a",
        "make(string,string,string,string,string,string,uint256)": "0436b69d",
        "material(uint256)": "c8a000e1",
        "reMake(uint256,uint256)": "cfb20619",
        "setAvater(uint256)": "7ce56996",
        "setConfig(uint256,string,string,string,string,string,uint256)": "1f89d282",
        "setDataOwner(bytes32,address)": "7473c685",
        "subtract(uint256,uint256[])": "72a5b18e"
    },
    "gasEstimates": {
        "creation": {
            "codeDepositCost": "2992000",
            "executionCost": "infinite",
            "totalCost": "infinite"
        },
        "external": {
            "PMT721S(address)": "infinite",
            "addition(uint256,uint256[])": "infinite",
            "avater(address)": "1301",
            "compose(uint256[],string,string,string,string,string)": "infinite",
            "createPMT721(string)": "infinite",
            "dataOwner(bytes32)": "1199",
            "handleTransfer(address,address,uint256)": "infinite",
            "make(string,string,string,string,string,string,uint256)": "infinite",
            "material(uint256)": "2869",
            "reMake(uint256,uint256)": "infinite",
            "setAvater(uint256)": "infinite",
            "setConfig(uint256,string,string,string,string,string,uint256)": "infinite",
            "setDataOwner(bytes32,address)": "23626",
            "subtract(uint256,uint256[])": "infinite"
        },
        "internal": {
            "_compose(uint256,uint256,address)": "infinite",
            "_make(address,string memory,bytes32,uint256,uint256)": "infinite"
        }
    }
}